{
  "contractName": "Test",
  "abi": [
    {
      "inputs": [
        {
          "internalType": "address payable",
          "name": "_payee",
          "type": "address"
        },
        {
          "internalType": "uint256",
          "name": "_amount",
          "type": "uint256"
        }
      ],
      "name": "payAddress",
      "outputs": [],
      "stateMutability": "payable",
      "type": "function",
      "payable": true
    },
    {
      "inputs": [
        {
          "internalType": "uint256",
          "name": "_key",
          "type": "uint256"
        }
      ],
      "name": "getPayee",
      "outputs": [
        {
          "internalType": "uint256",
          "name": "",
          "type": "uint256"
        }
      ],
      "stateMutability": "view",
      "type": "function",
      "constant": true
    }
  ],
  "bytecode": "0x608060405234801561001057600080fd5b5061027c806100206000396000f3fe6080604052600436106100295760003560e01c8063cdc5cdc11461002e578063d13136fd1461004a575b600080fd5b610048600480360381019061004391906101af565b610087565b005b34801561005657600080fd5b50610071600480360381019061006c91906101ef565b6100f7565b60405161007e919061022b565b60405180910390f35b80803373ffffffffffffffffffffffffffffffffffffffff1631116100ab57600080fd5b8273ffffffffffffffffffffffffffffffffffffffff166108fc839081150290604051600060405180830381858888f193505050501580156100f1573d6000803e3d6000fd5b50505050565b6000806000838152602001908152602001600020600101549050919050565b600080fd5b600073ffffffffffffffffffffffffffffffffffffffff82169050919050565b60006101468261011b565b9050919050565b6101568161013b565b811461016157600080fd5b50565b6000813590506101738161014d565b92915050565b6000819050919050565b61018c81610179565b811461019757600080fd5b50565b6000813590506101a981610183565b92915050565b600080604083850312156101c6576101c5610116565b5b60006101d485828601610164565b92505060206101e58582860161019a565b9150509250929050565b60006020828403121561020557610204610116565b5b60006102138482850161019a565b91505092915050565b61022581610179565b82525050565b6000602082019050610240600083018461021c565b9291505056fea264697066735822122040549786020ad06be18212977889d6ed7f79e26a4ab14b992120446b94423e5c64736f6c634300080a0033",
  "immutableReferences": {},
  "source": "// SPDX-License-Identifier: MIT\r\npragma solidity >=0.4.22 <0.9.0;\r\n\r\ncontract Test {\r\n\r\n    struct Payee {\r\n        address addr;\r\n        uint amountPayed;\r\n    }\r\n    \r\n    mapping (uint => Payee) payees;\r\n    mapping (address => uint) recievers;\r\n\r\n    modifier checkFunds(uint _amount) { \r\n        require(msg.sender.balance > _amount);\r\n        _;\r\n    }\r\n\r\n    function payAddress(address payable _payee, uint _amount) public payable checkFunds(_amount){\r\n        _payee.transfer(_amount);\r\n    }\r\n\r\n    function getPayee(uint _key) public view returns(uint){\r\n        return payees[_key].amountPayed;\r\n    }\r\n}\r\n",
  "sourcePath": "E:\\Personal Work\\Projects\\Blockchain\\Election-Dapp\\contracts\\Test.sol",
  "compiler": {
    "name": "solc",
    "version": "0.8.10+commit.fc410830.Emscripten.clang"
  },
  "schemaVersion": "3.4.7",
  "updatedAt": "2022-06-13T21:29:18.887Z",
  "networkType": "ethereum",
  "devdoc": {
    "kind": "dev",
    "methods": {},
    "version": 1
  },
  "userdoc": {
    "kind": "user",
    "methods": {},
    "version": 1
  }
}